:100000000C945D000C9485000C9485000C94850084
:100010000C9485000C9485000C9485000C9485004C
:100020000C9485000C9485000C9485000C9485003C
:100030000C9485000C9485000C9485000C9485002C
:100040000C94C7020C9485000C9485000C948500D8
:100050000C9485000C9485000C9485000C9485000C
:100060000C9485000C94850000000008000201003B
:100070000003040700000000000000000000000072
:10008000250028002B0000000000240027002A0083
:10009000040404040404040402020202020203032E
:1000A0000303030301020408102040800102040836
:1000B0001020010204081020790411241FBECFEF84
:1000C000D8E0DEBFCDBF11E0A0E0B1E0E4E2FDE0AA
:1000D00002C005900D92AA33B107D9F721E0AAE337
:1000E000B1E001C01D92AB35B207E1F710E0CDE5FC
:1000F000D0E004C02197FE010E948A06CC35D107CA
:10010000C9F70E9411030C9490060C94000090E033
:10011000FC01EC55FF4F249180579F4FFC018491C7
:10012000882399F090E0880F991FFC01EA57FF4F50
:10013000A591B491FC01E458FF4F859194918FB73C
:10014000F894EC91E22BEC938FBF089590E0FC01C2
:10015000E859FF4F2491FC01EC55FF4F3491FC010D
:10016000E057FF4FE491EE23C9F0222339F023300A
:1001700001F1A8F4213019F1223029F1F0E0EE0F5D
:10018000FF1FE458FF4FA591B4918FB7F894EC91FD
:10019000611126C030953E233C938FBF08952730D0
:1001A000A9F02830C9F0243049F7809180008F7D74
:1001B00003C0809180008F7780938000DFCF84B56B
:1001C0008F7784BDDBCF84B58F7DFBCF8091B0006E
:1001D0008F778093B000D2CF8091B0008F7DF9CF20
:1001E0003E2BDACFAF92BF92CF92DF92EF92FF9287
:1001F0000F931F93CF93DF936C017B018B01040F4F
:10020000151FEB015E01AE18BF08C017D10759F0EA
:100210006991D601ED91FC910190F081E02DC6012C
:100220000995892B79F7C501DF91CF911F910F9126
:10023000FF90EF90DF90CF90BF90AF90089508951A
:1002400090E080E00895FC0101900020E9F73197EB
:10025000AF01481B590BBC0183E491E00C94F20000
:100260008F929F92AF92BF920F931F93CF93DF9382
:10027000CDB7DEB7A1970FB6F894DEBF0FBECDBFE6
:1002800019A2423008F44AE08E010F5D1F4F842E00
:10029000912CB12CA12CA50194010E946806E62F97
:1002A000B901CA01EA30F4F4E05DD801EE938D01A2
:1002B000232B242B252B79F790E080E0109719F061
:1002C000CD010E942301A1960FB6F894DEBF0FBEA8
:1002D000CDBFDF91CF911F910F91BF90AF909F90B5
:1002E0008F900895E95CE1CFCF93DF93EC0160E05C
:1002F0008E810E94A60061E08E810E94A60060E0CF
:100300008E810E94A6008BE891E00197F1F7DF91C2
:10031000CF910895CF92DF92EF92FF920F931F93A8
:10032000CF93DF936C017C0187E0E80EF11CD0E0F5
:10033000C0E0062F10E0B8010C2E02C0759567953D
:100340000A94E2F76170F70181917F010E94A60093
:100350002196C430D10579F7C601DF91CF911F9165
:100360000F91FF90EF90DF90CF900C947401CF929B
:10037000DF92EF92FF920F931F93CF93DF93EC01E5
:10038000F62E642F8C810E94A6008D818F3F19F07C
:1003900060E00E94A6000F2D10E08F8584FF25C02D
:1003A0006E0187E0C80ED11CF12CE12CB8010E2C97
:1003B00002C0759567950A94E2F76170F601819124
:1003C0006F010E94A600FFEFEF1AFF0A88E0E8160F
:1003D000F10461F7CE01DF91CF911F910F91FF9052
:1003E000EF90DF90CF900C947401B80184E0759584
:1003F00067958A95E1F7CE010E948A016F2DCE01A3
:10040000DF91CF911F910F91FF90EF90DF90CF90F0
:100410000C948A0140E0682F83E491E00C94B701CA
:10042000CF93DF93823029F490915201986090939A
:100430005201809356011092570180E48093580135
:1004400080E18093590180E580935A0180914701B2
:100450000E948700809148018F3F11F00E94870021
:10046000809149010E948700C3E4D1E09E0123549A
:1004700031408091520184FD0AC084E090E02196D1
:10048000281739073CF48E810E948700EFCF88E05F
:1004900090E0F5CF8BE39DE00197F1F760E080916C
:1004A00047010E94A60060E0809149010E94A600D9
:1004B000809148018F3F19F060E00E94A600809172
:1004C000520184FD39C063E083E491E00E948A0117
:1004D000CBE4D6E4CE010197F1F763E083E491E049
:1004E0000E948A012197F1F763E083E491E00E9482
:1004F0008A0183E592E00197F1F762E083E491E0FD
:100500000E948A018091520180620E940A0284E066
:10051000809353018CE00E940A0281E00E940A024B
:100520008BE39FE10197F1F782E08093540186E02D
:10053000DF91CF910C940A0280620E940A028BE440
:1005400096E40197F1F78091520180620E940A02BD
:1005500083E592E00197F1F78091520180620E9459
:100560000A02D0CF90915601691710F06FEF690F12
:10057000E62FF0E0ED5BFE4F9489890F80680C94C4
:100580000A0241E00E94B70181E090E008951F92C5
:100590000F920FB60F9211242F933F938F939F9337
:1005A000AF93BF9380913F0190914001A091410191
:1005B000B091420130913E0123E0230F2D3758F5D1
:1005C0000196A11DB11D20933E0180933F019093A0
:1005D0004001A0934101B093420180913A01909172
:1005E0003B01A0913C01B0913D010196A11DB11DBF
:1005F00080933A0190933B01A0933C01B0933D015D
:10060000BF91AF919F918F913F912F910F900FBE0E
:100610000F901F90189526E8230F0296A11DB11D7B
:10062000D2CF789484B5826084BD84B5816084BD66
:1006300085B5826085BD85B5816085BD80916E0080
:10064000816080936E0010928100809181008260B1
:1006500080938100809181008160809381008091EE
:1006600080008160809380008091B10084608093DD
:10067000B1008091B00081608093B00080917A00D9
:10068000846080937A0080917A00826080937A00FF
:1006900080917A00816080937A0080917A008068EE
:1006A00080937A001092C10082E00E94100280E4E0
:1006B0000E940A02C0E0D1E008E011E0699183E401
:1006C00091E00E94C1020C171D07C1F760E080E0B5
:1006D0000E94B20284E191E00E94230110E4C0E094
:1006E000D0E010937C0080917A00806480937A003F
:1006F00080917A0086FDFCCF60917800709179003E
:10070000072E000C880B990B0E94410529E238E264
:1007100040EA5BE30E94F60520E030E040E351E46C
:100720000E94F6059B01AC0160E070E088E492E471
:100730000E9497046B017C0120E030E0A9010E9437
:10074000F10520E030E040E05FE387FD39C0C701FC
:10075000B6010E9498040E9409050E9441056B01A0
:100760007C0161E080E00E94B20284E291E00E949C
:10077000230161E088E00E94B202A7019601C7014F
:10078000B6010E946306882301F18CE291E00E9489
:10079000230161E08DE00E94B20260E083E491E019
:1007A0000E94C10261E08EE00E94B20288E391E003
:1007B0000E942301209709F494CF0E94000091CF5A
:1007C000C701B6010E949704C6CF46015701E894BD
:1007D000B7F82FEF3FEF4FE75FE7C501B4010E9485
:1007E000630681110DC02FEF3FEF4FE75FE7C501B3
:1007F000B4010E94040518161CF480E391E0C7CFF1
:100800002FEF3FEF4FE75FE4C701B6010E94F1050C
:1008100018161CF484E391E0BACF2FEF3FEF4FE7B7
:100820005FECC701B6010E94040587FDF3CF20E00D
:1008300030E0A901C701B6010E94040587FF0AC084
:1008400041E06DE283E491E00E94B701F7FAF09491
:10085000F7F8F0942AE037ED43EA5BE3C701B6010D
:100860000E9498044B015C010E9410056B017C0101
:100870000E943F059B01AC01C501B4010E94970491
:100880004B015C014AE0C701B6010E94300141E022
:100890006EE283E491E00E94B70120E030E040E2A4
:1008A00051E4C501B4010E94F6054B015C010E94B0
:1008B00010056B01F12CE12C4AE0C701B6010E9442
:1008C0003001C701B6010E943F059B01AC01C50183
:1008D000B4010E94970420E030E040E251E40E941D
:1008E000F6050E94100590E080E04AE00E94300189
:1008F00050CFE3E4F1E0138212828CE091E0918327
:1009000080838CE084838FEF85838BE0868385E012
:10091000878384E0808783E0818782E082871386F3
:10092000148615861686178681E00C94100250589E
:10093000BB27AA270E94AF040C94B7050E94A90503
:1009400038F00E94B00520F039F49F3F19F426F4E6
:100950000C94A6050EF4E095E7FB0C94A005E92F96
:100960000E94C80558F3BA176207730784079507F2
:1009700020F079F4A6F50C94EA050EF4E0950B2E20
:10098000BA2FA02D0B01B90190010C01CA01A001E1
:100990001124FF27591B99F0593F50F4503E68F13C
:1009A0001A16F040A22F232F342F4427585FF3CF7D
:1009B000469537952795A795F0405395C9F77EF44E
:1009C0001F16BA0B620B730B840BBAF09150A1F097
:1009D000FF0FBB1F661F771F881FC2F70EC0BA0F1D
:1009E000621F731F841F48F4879577956795B795A5
:1009F000F7959E3F08F0B0CF9395880F08F09927A0
:100A0000EE0F9795879508950E947C0508F481E084
:100A100008950E9410056894B1110C94EB05089597
:100A20000E94D00588F09F5798F0B92F9927B751A9
:100A3000B0F0E1F0660F771F881F991F1AF0BA9582
:100A4000C9F714C0B13091F00E94EA05B1E00895F1
:100A50000C94EA05672F782F8827B85F39F0B93FE3
:100A6000CCF3869577956795B395D9F73EF4909535
:100A70008095709561957F4F8F4F9F4F0895E894B3
:100A800009C097FB3EF490958095709561957F4FD6
:100A90008F4F9F4F9923A9F0F92F96E9BB27939584
:100AA000F695879577956795B795F111F8CFFAF494
:100AB000BB0F11F460FF1BC06F5F7F4F8F4F9F4FC5
:100AC00016C0882311F096E911C0772321F09EE823
:100AD000872F762F05C0662371F096E8862F70E089
:100AE00060E02AF09A95660F771F881FDAF7880F63
:100AF0009695879597F90895990F0008550FAA0BB9
:100B0000E0E8FEEF16161706E807F907C0F0121620
:100B10001306E407F50798F0621B730B840B950B23
:100B200039F40A2661F0232B242B252B21F4089578
:100B30000A2609F4A140A6958FEF811D811D089515
:100B400097F99F6780E870E060E008959FEF80EC80
:100B5000089500240A941616170618060906089523
:100B600000240A9412161306140605060895092E89
:100B70000394000C11F4882352F0BB0F40F4BF2BF8
:100B800011F460FF04C06F5F7F4F8F4F9F4F089538
:100B900057FD9058440F551F59F05F3F71F047952E
:100BA000880F97FB991F61F09F3F79F08795089513
:100BB000121613061406551FF2CF4695F1DF08C032
:100BC000161617061806991FF1CF8695710561054F
:100BD00008940895E894BB2766277727CB0197F9F7
:100BE00008950E947C0508F48FEF08950E9409067D
:100BF0000C94B7050E94A90538F00E94B00520F0BA
:100C0000952311F00C94A0050C94A60511240C94C6
:100C1000EB050E94C80570F3959FC1F3950F50E056
:100C2000551F629FF001729FBB27F00DB11D639F9E
:100C3000AA27F00DB11DAA1F649F6627B00DA11D44
:100C4000661F829F2227B00DA11D621F739FB00DEA
:100C5000A11D621F839FA00D611D221F749F33275A
:100C6000A00D611D231F849F600D211D822F762FF3
:100C70006A2F11249F5750409AF0F1F088234AF0D0
:100C8000EE0FFF1FBB1F661F771F881F915050403C
:100C9000A9F79E3F510580F00C94A0050C94EB053C
:100CA0005F3FE4F3983ED4F3869577956795B795C3
:100CB000F795E7959F5FC1F7FE2B880F911D9695DD
:100CC000879597F908950E947C05880B990B0895E4
:100CD000A1E21A2EAA1BBB1BFD010DC0AA1FBB1F40
:100CE000EE1FFF1FA217B307E407F50720F0A21BB2
:100CF000B30BE40BF50B661F771F881F991F1A941F
:100D000069F760957095809590959B01AC01BD0148
:100D1000CF010895EE0FFF1F0590F491E02D099487
:040D2000F894FFCF75
:100D2400070507000000000000000000C102F200F7
:100D340020011F014F72696F6E205465636820544F
:100D440075626500525F54656D703A006E616E00A5
:0A0D5400696E66006F7666004300CA
:00000001FF
